:1000000008308A009C290000FF00030E8301A10034
:100010000A08A0008A010408A2007708A300780853
:10002000A4007908A5007A08A6007B08A70083131E
:1000300083128C308400801E1F288C1A32282208DC
:1000400084002308F7002408F8002508F900260892
:10005000FA002708FB0020088A00210E8300FF0E0B
:100060007F0E09008A110A12442A0A108A100A1106
:10007000820728340C34013406340A108A100A111D
:10008000820720342034203420342034483475341E
:1000900067346F34203453346F34613472346534D0
:1000A00073342034203400340A108A100A11820775
:1000B000203420342A342A3420342034413470341B
:1000C00072346534733465346E347434613420347E
:1000D00020342A342A3400340A108A100A11820784
:1000E0000C3400340A108A100A118207203420349C
:1000F0002034203452346F3462346F3474342034FA
:100100004D3465346E3474346F347234203420349A
:10011000203400340A108A100A1182072A342A3443
:100120002A342A342A342A342A342A342A342A34DF
:100130002A342A342A342A342A342A342A342A34CF
:100140002A342A3400340A108A100A118207203413
:100150004A346F34793473347434693463346B34AF
:10016000203443346F346E346E3465346334743405
:1001700065346434203400340A108A100A1182076E
:1001800020342034203453346F346634743477345C
:1001900061347234653420344D346F3464346534E2
:1001A00020342034203400340A108A100A118207C7
:1001B000203420342034203420344E346F34203422
:1001C0004A346F34793473347434693463346B343F
:1001D00020342034203400340A108A100A11F33EEF
:1001E00003188A0A820020342034203450346F34BB
:1001F00073346934633461346F3420344D34613482
:100200006E346934703475346C346F342034003497
:100210000A148A100A118207203420342034503402
:100220006F3473346934633461346F34203443344D
:10023000503455342034203400340A148A100A1102
:10024000820720342034203450346F3473346934BE
:10025000633461346F3420344D346F3474346F340C
:1002600072346534733420340034E501E3010A301C
:10027000E400E20160086104031D41290030F80038
:10028000322A6508E50A6007840083136118831722
:100290000008E60066082D3C031D5A290130E300E2
:1002A0006508E50A60078400831361188317000856
:1002B000E600672966082B3C031D67296508E50AE7
:1002C000600784008313611883170008E60066083E
:1002D0002F3C0318282A6608393C031C282A660884
:1002E000303C031D9329650860078400831361185F
:1002F00083170008783C0319872965086007840084
:100300008313611883170008583C031D932910308C
:10031000E400E50A6508E50A6007840083136118B4
:1003200083170008E60064080A3C031DD629660806
:100330002F3C0318D5296608393C031CD5290A30FF
:10034000E7006208E800F701F80167080310681881
:10035000F707F70CF80CE818F707F70CF80C681912
:10036000F707F70CF80CE819F707F70CF80C681A00
:10037000F707F70CF80CE81AF707F70CF80C681BEE
:10038000F707F70CF80CE81BF707F70CF80C303000
:1003900066027807E2006508E50A600784008313B7
:1003A000611883170008E6009729282A6408103C82
:1003B000031D282A6608603C0318E52966087A3C74
:1003C000031CE5296608DF39E6296608E6006608A9
:1003D0002F3C0318EF296608393C0318F7296608F3
:1003E000403C0318282A6608463C031C282A660855
:1003F0002F3C0318082A6608393C031C082A620EA1
:10040000E700F030E705303066026707E200112AA6
:10041000620EE700F030E705413066020A3E6707EA
:10042000E2006508E50A60078400831361188317FA
:100430000008E6006608603C0318252A66087A3C36
:10044000031C252A6608DF39262A6608E600E72904
:10045000630B302A64080A3C031D302AE209E20AD1
:100460006208F8000034E0016008053C031C3F2AE4
:1004700041306007840083138001E00A342AC901F7
:1004800083168C168312003483160810831208100A
:100490008C1ECB2A8C1E4A2A1A08DF005F087C3C7F
:1004A000031DC02A41304907840083135F08800080
:1004B00083168C1283124408613A0319722A033A94
:1004C00003197E2A013A03198A2A073A0319962A40
:1004D000013A0319A22A033A0319AE2A0C3A031966
:1004E000BA2ABE2A4108733C03197D2AE101413032
:1004F000E00035217808B5003322BF2A4108733C5B
:100500000319892AE1014130E00035217808B6005D
:100510003322BF2A4108733C0319952AE101413077
:10052000E00035217808B7003322BF2A4108733C28
:100530000319A12AE1014130E00035217808B80013
:100540003322BF2A4108733C0319AD2AE10141302F
:10055000E00035217808B9003322BF2A4108733CF6
:100560000319B92AE1014130E00035217808BA00C9
:100570003322BF2A33220130CA00BF2A3322CB2ABA
:100580004908043C031CCB2A4908C90A413E84009F
:1005900083135F08800083160810831208148C12DE
:1005A0008A110A121F285630840083130008031989
:1005B000E72A0130F800F701F70BDC2AF80BDB2AF9
:1005C0004A30F700F70BE22AE52A800BD92A0034DB
:1005D00083161F109F141F159F151F1383121F17BB
:1005E0009F1783169F1383121F14013083168500F3
:1005F0000030860080308700FC30880008108312AD
:1006000008108316881083128810C830D600D322B1
:10061000C0308B0483168C160810831208148316BE
:100620008810831288148A150A12CE295D181A2B95
:1006300006121B2B0616831606128312DD18222BB8
:100640008612232B86168316861283125D192A2B97
:1006500006132B2B0617831606138312DD19322B74
:100660008613332B86178316861300000610831219
:1006700006143A2B83160610831206100034DE018E
:1006800083160610831206140000831606168312C2
:100690005E10061A5E14831686168312DE10861A02
:1006A000DE148316061783125E11061B5E15831671
:1006B00086178312DE11861BDE1583160610831241
:1006C000061000005E08F8000034831686108312BE
:1006D0008610831606118312061500003F23780842
:1006E000DD003F237808DC005D0EF700F030F705F1
:1006F00077085C04F8007808DC00DC1B692BDA085A
:100700000319872B83168610831286148B2B83166E
:1007100086108312861000008316061183120611BC
:10072000000083160610831206105B0EDC000F30EB
:10073000DC055C08DD0016235B080F39DC00DD00FA
:10074000162300345708013A0319B02B033A031952
:10075000B22B013A0319B52B073A0319B82BBB2B5F
:10076000D801BD2B4030D800BD2B1430D800BD2B94
:100770005430D800BD2BD801BD2B01305602D8070C
:1007800058088038D900DA015908DB0065230034A5
:1007900055080C3A0319D32B063A0319DD2B023AFC
:1007A0000319E42BE92BDA010130DB00652301306A
:1007B000A8000230D600D322EF2BA80A0130D600C1
:1007C0002808D700A223EF2BDA011030DB006523C5
:1007D000EF2B0130DA005508DB006523EF2B0034E6
:1007E0000130A80083168610831286108316061126
:1007F0008312061183160610831206102330D600CA
:10080000D322CE014E08023C031C0E2C0330DD0027
:1008100016230530D600D322CE0A022C0230DD008A
:100820001623CE014E08033C031C1F2C4E08352016
:10083000CF00DA014F08DB006523CE0A122C02300C
:10084000D600D3220130C600C7004608D6004708AC
:10085000D700A223CE014E083D20CE0AF700D500D6
:10086000C82312304E02031D2B2C0130C60002306B
:10087000C7004608D6004708D700A223CE014E087D
:100880005420CE0AF700D500C82313304E02031DB2
:100890003F2C0830CE00FA30D600D322CE0B4B2CA2
:1008A0000C30D500C8230130C600C7004608D6006A
:1008B0004708D700A223CE014E087220CE0AF700C7
:1008C000D500C82313304E02031D5C2C0130C60036
:1008D0000230C7004608D6004708D700A223CE0141
:1008E0004E088A20CE0AF700D500C82314304E02E5
:1008F000031D702C0830CE00FA30D600D322CE0B68
:100900007C2CCE014E086C20003803198B2CCE0AAB
:10091000D500C823822C0130C600C7004608D60087
:100920004708D700A2238A150A12D229C808031D36
:100930009B2C8701BB2C480BA02C01308700BB2CC3
:100940004808023C031DA72C02308700BB2C480836
:10095000033C031DAE2C03308700BB2C4808043C2D
:10096000031DB52C04308700BB2C4808053C031D33
:10097000BB2C053087008A150A12DA290030F800EE
:100980001F08C73978049F000330F700F70BC62C07
:100990003B304807840083131F151F19CD2C1E08F8
:1009A00080000330F700F70BD32C8A150A12DD29DB
:1009B0000830F800000087118316871100008312A9
:1009C000CE0D0712031CE72C83160716831203189B
:1009D000EC2C831607128312831687158312871D4A
:1009E000EF2CF80BDA2C000087118316871100001A
:1009F00007160000000087158312871DFD2CF801E3
:100A00000000071A781487118316871183120712C2
:100A100083160712831200348316881083128810FD
:100A2000831607160000871500008312071283162D
:100A3000071200008312871183168711A0308312DA
:100A4000CE00D8243B08CE00D8248316071200001D
:100A500087158312871D2A2D00002E2D0000831676
:100A600007160000881083128814831688108312DA
:100A700088108316071600008715000083120712DE
:100A80008316071200008312871183168711A23084
:100A90008312CE00D8243C08CE00D8248316071237
:100AA000000087158312871D532D0000572D00006D
:100AB0008316071600008810831288148316881086
:100AC0008312881083160716000087150000831212
:100AD00007128316071200008312871183168711ED
:100AE000A4308312CE00D8243D08CE00D82483162B
:100AF0000712000087158312871D7C2D0000802DB2
:100B000000008316071600008810831288148316CD
:100B100088108312881083160716000087150000BE
:100B2000831207128316071200008312871183169F
:100B30008711A6308312CE00D8243E08CE00D824D8
:100B400083160712000087158312871DA52D00004C
:100B5000A92D000083160716000088108312881440
:100B600083168810831288108316071600008715D5
:100B700000008312071283160712000083128711E8
:100B800083168711A8308312CE00D8243F08CE00E8
:100B9000D82483160712000087158312871DCE2DD7
:100BA0000000D22D00008316071600008810831263
:100BB0008814831688108312881083160716000085
:100BC0008715000083120712831607120000831294
:100BD000871183168711AA308312CE00D8244008CB
:100BE000CE00D82483160712000087158312871DB4
:100BF000F72D0000FB2D000083160716000088105B
:100C0000831288148A150A12B72A83168810831251
:100C1000881083160716000087150000831207123C
:100C20008316071200008312871183168711A030E4
:100C30008312CE00D8243508CE00D824831607129C
:100C4000000087158312871D232E0000272E000029
:100C500083160716000088108312881483168810E4
:100C60008312881083160716000087150000831270
:100C7000071283160712000083128711831687114B
:100C8000A2308312CE00D8243608CE00D824831692
:100C90000712000087158312871D4C2E0000502E6E
:100CA000000083160716000088108312881483162C
:100CB000881083128810831607160000871500001D
:100CC00083120712831607120000831287118316FE
:100CD0008711A4308312CE00D8243708CE00D82440
:100CE00083160712000087158312871D752E0000DA
:100CF000792E0000831607160000881083128814CE
:100D00008316881083128810831607160000871533
:100D10000000831207128316071200008312871146
:100D200083168711A6308312CE00D8243808CE004F
:100D3000D82483160712000087158312871D9E2E64
:100D40000000A22E000083160716000088108312F0
:100D500088148316881083128810831607160000E3
:100D600087150000831207128316071200008312F2
:100D7000871183168711A8308312CE00D824390832
:100D8000CE00D82483160712000087158312871D12
:100D9000C72E0000CB2E0000831607160000881017
:100DA00083128814831688108312881083160716FE
:100DB0000000871500008312071283160712000037
:100DC0008312871183168711AA308312CE00D8248C
:100DD0003A08CE00D8248316071200008715831224
:100DE000871DF02E0000F42E000083160716000069
:100DF0008810831288148A150A12BC2A0830CF0082
:100E00007708D00083160716000087158312871D08
:100E1000072F071A0314071E0310F80D000083168E
:100E2000871183128711CF0B022F8316071600003C
:100E30008312071250080319202F831607128312FA
:100E40000000831687158312871D242F0000871149
:100E5000831687110000831207128316071283126C
:100E600000345608F80155020318392F5508F700C9
:100E7000452FF7010830D700D50DF70D560877023A
:100E80000318F700F80DD70B3C2F00342030501E0C
:100E90003030D1004F08F700CF1F552FF709F70A60
:100EA0007708CF002D30D100D0174F08D50064301F
:100EB000D60031277708CF0030307807D2004F08AE
:100EC000D5000A30D600312730307707D4003030D3
:100ED0007807D3005108F700D01D702FD01F501194
:100EE000501A7D2FD01F982F5019982F7708D200B5
:100EF000D018982F7708D300982F30305202031D56
:100F0000982F7708D2002030D100D01D8B2F5011A0
:100F1000D014D01FD01030305302031D982F770803
:100F2000D3002030D200D01D8B2FD010D01F5010F6
:100F3000501D9D2F5108D500C823D01CA22F520848
:100F4000D500C823501CA72F5308D500C823540828
:100F5000D500C823003478084F08D5006430D60087
:100F600031277708CF0078083030031DBE2FD01C02
:100F7000C52FD019C52F501A2030C12FD0115012B3
:100F80005014F8077808D500C8234F08D5000A3058
:100F9000D60031277708CF0078083030031DD62FD0
:100FA000D019DA2F501CDA2F501A2030F8077808A1
:100FB000D500C8233030CF074F08D500C8230034F0
:101000008316881083128810831607160000871530
:101010000000831207128316071200008312871143
:1010200083168711A1308312CE008A11D8248A1525
:10103000F7018A11FE268A157808AF008316071279
:10104000000087158312871D232800002728000031
:1010500083160716000088108312881483168810E0
:10106000831288108316071600008715000083126C
:101070000712831607120000831287118316871147
:10108000A3308312CE008A11D8248A15F7018A1161
:10109000FE268A157808B00083160712000087150F
:1010A0008312871D5128000055280000831607165B
:1010B0000000881083128814831688108312881009
:1010C0008316071600008715000083120712831687
:1010D000071200008312871183168711A53083122F
:1010E000CE008A11D8248A15F7018A11FE268A15A6
:1010F0007808B10083160712000087158312871D38
:101100007F2800008328000083160716000088103F
:10111000831288148316881083128810831607168A
:1011200000008715000083120712831607120000C3
:101130008312871183168711A7308312CE008A117C
:10114000D8248A15F7018A11FE268A157808B2007C
:1011500083160712000087158312871DAD28000033
:10116000B128000083160716000088108312881427
:1011700083168810831288108316071600008715BF
:1011800000008312071283160712000083128711D2
:1011900083168711A9308312CE008A11D8248A15AC
:1011A000F7018A11FE268A157808B3008316071204
:1011B000000087158312871DDB280000DF28000050
:1011C000831607160000881083128814831688106F
:1011D00083128810831607160000871500008312FB
:1011E00007128316071200008312871183168711D6
:1011F000AB308312CE008A11D8248A15F7018A11E8
:10120000FE268A157808B400831607120000871599
:101210008312871D092900000D2900008316071677
:1012200000008810831288148A150A12BE2A2F30F3
:101230004807840083130008CF004F08D000133004
:10124000D1005008D5006430D6008A1131278A15A4
:101250007708D00078083030031D3529D11C3D298E
:10126000D1193D29511A20303829D1115112511468
:10127000F80778080C1E3A2999005008D5000A3062
:10128000D6008A1131278A157708D00078083030C7
:10129000031D5029D1195529511C5529511A2030A7
:1012A000F80778080C1E522999003030D0075008F2
:1012B0000C1E582999004E080C1E5C2999007C30A0
:1012C0000C1E60299900003483168C128312C80109
:1012D0004808053C031C8C294808FA3E03188A2953
:1012E000063E92296130CE0017218A296230CE0055
:1012F00017218A296330CE0017218A296430CE0055
:1013000017218A296530CE0017218A296630CE0040
:1013100017218A29C80A682983168C1683128A1510
:101320000A12EA2B0A148A100A11820772297629F6
:101330007A297E2982298629840183131F30830517
:10134000193083169900A6309800903083129800C7
:1013500083161F149F141F159F1107309C008312C2
:10136000A901AA018030AF00B000B100B200B30003
:10137000B400B500B600B700B800B900BA00BB00B1
:10138000BC00BD00BE00BF00C000C601C701C9014E
:10139000CA014B10CC01CD018A11E82A8A15C80177
:1013A0008A11F02B8A15C8014808053C031CE02966
:1013B0008A11962C8A158A11BE2C8A15C80AD4293E
:1013C0004D08113C0318ED29FF3A031DEB294C0889
:1013D000C03C0318ED29CD01CC01CC0A0319CD0A7C
:1013E000BB080319082ABC080319082ABD080319F9
:1013F000082ABE080319082ABF080319082AC008CA
:101400000319082A831608158312081D082A4B1091
:10141000BB08031D282ABC08031D282ABD08031D7C
:10142000282ABE08031D282ABF08031D282AC00831
:1014300003191C2A00301D2A0130CE00831608151E
:1014400000308312081D01304E040319282A4B1462
:101450004C0B422ACD08031D422A4B18422A0C305D
:10146000D5008A11C8238A15CE014E088A11A320FF
:101470008A1500380319422ACE0AD5008A11C823DA
:101480008A15352A4C0B702ACD08031D702A4B1C77
:10149000702A0C30D5008A11C8238A1583160815C6
:1014A00083120819622ACE014E088A11BC208A15BF
:1014B00000380319612ACE0AD5008A11C8238A157B
:1014C000542A702ACE014E088A11D4208A15003879
:1014D0000319702ACE0AD5008A11C8238A15632AF7
:1014E0004C08643C031D772ACD080319792A003083
:1014F0007A2A0130CE004C08B03C031D832A4D08E7
:10150000043C0319852A0030862A01304E04CF009E
:101510004C08FC3C031D902A4D08083C0319922AF4
:101520000030932A01304F04D0004C08483C031D82
:101530009D2A4D080D3C03199F2A0030A02A013036
:101540005004D1004C08943C031DAA2A4D08113CBC
:101550000319AC2A0030AD2A013051040319C12A05
:1015600083168C1283124B18B82A8A110C2D8A15F7
:101570004B1CBD2A8A11052E8A15002883168C164D
:1015800083124C08843C031D232B4D08033C031D90
:10159000232B0C30D5008A11C8238A15CE014E08A2
:1015A0008A11EC208A1500380319DC2ACE0AD500EE
:1015B0008A11C8238A15CF2AC8014808053C031C94
:1015C000232B4808023C0318F02A01304802CE00C1
:1015D0000B30D6004E08D7008A11A2238A15FE2AA6
:1015E0004808023C031CFE2A02304807CE000130A6
:1015F000D6004E08D7008A11A2238A151430D600CF
:101600008A11D3228A153B304807840083130008CF
:10161000CE004330D5008A11C8238A154808CF0070
:101620001F30D0008A1146278A152030D5008A1134
:10163000C8238A154E08CF001330D0008A11AB277B
:101640008A15C80ADD2A4C086C3C031D852B4D0801
:10165000073C031D852B0C30D5008A11C8238A1541
:10166000CE014E088A1108218A15003803193E2B35
:10167000CE0AD5008A11C8238A15312BC801480823
:10168000053C031C852B4808023C0318522B0130F3
:101690004802CE000B30D6004E08D7008A11A22394
:1016A0008A15602B4808023C031C602B0230480757
:1016B000CE000130D6004E08D7008A11A2238A1529
:1016C0000230D6008A11D3228A15353048078400AB
:1016D00083130008CE004330D5008A11C8238A1531
:1016E0004808CF001F30D0008A1146278A152030C5
:1016F000D5008A11C8238A154E08CF001330D000B8
:101700008A11AB278A15C80A3F2B4C083C3C031DA5
:10171000E72B4D080F3C031DE72B0C30D5008A1139
:10172000C8238A15CE014E088A111D218A1500385A
:101730000319A02BCE0AD5008A11C8238A15932B32
:10174000C8014808053C031CE72B4808023C031865
:10175000B42B01304802CE000B30D6004E08D70023
:101760008A11A2238A15C22B4808023C031CC22BF3
:1017700002304807CE000130D6004E08D7008A114B
:10178000A2238A150230D6008A11D3228A152F305F
:101790004807840083130008CE004330D5008A1127
:1017A000C8238A154808CF001F30D0008A11462769
:1017B0008A152030D5008A11C8238A154E08CF001B
:1017C0001330D0008A11AB278A15C80AA12B4A0B07
:0A17D000EB2B6429CA01D329630042
:02400E00723FFF
:00000001FF
;PIC16F877A
