:1000000000308A00E8280000FF00030E8301A100F1
:100010000A08A0008A010408A2007708A300780853
:10002000A4007908A5007A08A6007B08A70083131E
:1000300083128C308400801D1F288C1932282208DE
:1000400084002308F7002408F8002508F900260892
:10005000FA002708FB0020088A00210E8300FF0E0B
:100060007F0E09008A110A12352887128316941A06
:100070003E288312B6011318B6178316831236086A
:10008000B60AAF002F087F3C031C6128AF08031D90
:100090004F288316141C4A2883121308B1002F0B13
:1000A00057288316141C522883121308B1002F08F6
:1000B000023C031D61288316141C5C28831213085C
:1000C000B1002F08803C031D72283008B8003808A2
:1000D000930014168C11831614186C28F8018312DF
:1000E000141AF80A87168C118A110A121F28FF3079
:1000F0008316860083120608B700F030B705B70CE8
:10010000B70CB70C1F30B705A030B70737088316F8
:10011000930083128A110A121029983083168700DF
:10012000831207138712C830B70037308400831357
:1001300000080319A9280130F800F701F70B9E28E1
:10014000F80B9D284A30F700F70BA428A728800B4E
:100150009B2883168C15C03083128B0487168A1156
:100160000A12112983161F109F141F159F151F13A4
:1001700083121F179F1783169F1383121F140130BA
:100180008316850083128A110A1212290030F800A2
:100190001F08C73978049F000330F700F70BCE28FB
:1001A0001F151F19D1281E08B0008A110A12132921
:1001B00007178710071100340717871007158A11D2
:1001C0000A1233290717871407118A110A123E29C8
:1001D000840183131F308305A81528088316870020
:1001E000831228162808831687009301363083125D
:1001F000940083161F149F141F159F1107309C0035
:10020000FF308312A800A901AA018030B000B1001C
:10021000B201B3010130B400B5000330B600772855
:100220008D28B228C6283008FA3C03181C29D8208B
:10023000B4010130B50040293008093C031C2529D0
:10024000D820B5010130B400402931083002031D27
:100250002B29D82040293008310203183629B50847
:1002600003193629DC280130B40040293108300256
:1002700003184029B40803194029E2280130B500C9
:0402800012296300DC
:02400E00713F00
:00000001FF
;PIC16F876A
